:020000040800F2
:10000000E80C002059010008F92A0008D32900084B
:1000100000000000000000000000000000000000E0
:10002000000000000000000000000000A92D0008F2
:100030000000000000000000FB2A0008D12D00088D
:100040006B010008000000006B0100086B01000854
:100050006B0100086B0100086B0100086B010008D0
:10006000000000006B010008FD1400080D150008D9
:100070006B0100086B0100086B0100080000000024
:100080006B0100086B010008000000006B01000814
:100090006B0100086B0100086B0100086B01000890
:1000A0006B010008152B00086B010008E533000800
:1000B0006B01000800F002F800F03EF80CA030C818
:1000C000083824182D18A246671EAB4654465D46D4
:1000D000AC4201D100F030F87E460F3E0FCCB64660
:1000E0000126334200D0FB1AA246AB4633431847E1
:1000F000704D0000904D0000103A02D378C878C1CE
:10010000FAD8520701D330C830C101D504680C6059
:10011000704700000023002400250026103A01D378
:1001200078C1FBD8520700D330C100D50B607047AF
:100130001FB51FBD10B510BD01F060F91146FFF7E6
:10014000F7FF03F0F3FB01F078F903B4FFF7F2FFD8
:1001500003BC01F0CBF9000007488047074800477F
:10016000FEE7FEE7FEE7FEE7FEE7FEE70448054997
:10017000054A064B704700004D2E0008B5000008E8
:10018000E8060020E80C0020E8080020E80800202D
:10019000FEB5054610460C46184373D0AE468C4655
:1001A0000020AD1A01469C4167D366460027012412
:1001B0003D46B61A9D4102D313463A462124654670
:1001C00076462F04360C3E432D0CB61A9D4104D3BF
:1001D000150C1B042B4312041034654676462F067B
:1001E000360A3E432D0AB61A9D4104D3150E1B0252
:1001F0002B4312020834654676462F0736093E43E4
:100200002D09B61A9D4104D3150F1B012B43120172
:10021000241D65467646AF07B6083E43AD08B61ABC
:100220009D4104D3950F9B002B439200A41C65466F
:100230007646EF0776083E436D08B61A9D411AD3FD
:1002400092185B41641C16E00018764665464941E9
:10025000B71A9D410191009009D36046B11A9841A7
:100260008E468446009801990025401C6941DD07AF
:1002700052082A435B08641EE6D57246634603B003
:10028000F0BDFFE700200146C046C0462A4623468F
:10029000F5E701E004C0091F0429FBD28B0701D553
:1002A0000280801CC90700D00270704700290BD063
:1002B000C30702D00270401C491E022904D38307E1
:1002C00002D50280801C891EE3E70022EEE70022AF
:1002D000DFE7002203098B422CD3030A8B4211D3A0
:1002E00000239C464EE003460B433CD400224308C7
:1002F0008B4231D303098B421CD3030A8B4201D3B7
:1003000094463FE0C3098B4201D3CB01C01A52414E
:1003100083098B4201D38B01C01A524143098B429E
:1003200001D34B01C01A524103098B4201D30B0187
:10033000C01A5241C3088B4201D3CB00C01A5241AC
:1003400083088B4201D38B00C01A524143088B4271
:1003500001D34B00C01A5241411A00D2014652410A
:10036000104670475DE0CA0F00D04942031000D329
:100370004042534000229C4603098B422DD3030A7E
:100380008B4212D3FC22890112BA030A8B420CD38E
:10039000890192118B4208D3890192118B4204D3B7
:1003A00089013AD0921100E08909C3098B4201D337
:1003B000CB01C01A524183098B4201D38B01C01A71
:1003C000524143098B4201D34B01C01A52410309E8
:1003D0008B4201D30B01C01A5241C3088B4201D397
:1003E000CB00C01A524183088B4201D38B00C01A44
:1003F0005241D9D243088B4201D34B00C01A52411B
:10040000411A00D20146634652415B10104601D3A7
:100410004042002B00D54942704763465B1000D331
:10042000404201B50020C046C04602BD704770473B
:10043000704700000246C80FC00781434B0030B52B
:100440004B405B009B0D20D01923DB06C91801230C
:100450001B05994220DB0324A40704251346AB4067
:100460000BD3002B04D1EB0613409B00E34204D4D2
:1004700001246407002312195941FF231B059942E7
:100480000BD2C9000143500F09E0CB0204D5014350
:100490000803024305D0054830BDFF21C9050843C4
:1004A00030BD084607210905884330BD0000C07FE4
:1004B000F0B50C46871A9C410D46861A9D4103D221
:1004C000C01BA141D21963410D0D1F0DC94EEC1B7C
:1004D000AE435CD07F057F0D0026002F51D02D0547
:1004E000AC46A943DD020123ED0A1B051D43202371
:1004F0001B1B24D41746E740381871412F46E740AC
:10050000CC199D402818314661410C0D27D161441A
:100510009A4013D50023401C594152000ED1400887
:10052000400001224B005205D34207D3052040076B
:10053000C14201D5B04900E0B0493046F0BD6B0082
:10054000002A00D001229A181F23203C1B1B01D532
:10055000002302E0E540281871410C0DD7D001249A
:1005600024050919C407CD0740084908E40F2843AA
:100570006144002CD5D00024401C61419A40D0D168
:10058000CDE76A05520DD9D1C90FC907D5E79C4DF2
:100590004E00002801D0012400E0002434195F003F
:1005A000002A01D0012600E00026BE19954FAC427A
:1005B0000CD8AE420AD8B44206D001256D05EC42F3
:1005C000BCD010461946F0BD9942FCD000203946F7
:1005D000F0BDF0B51FB40C460F46811A9F41254669
:1005E000861A9D4106D20125ED076F40401ABC4195
:1005F00052187B41210D1E0D8D1BAC467D4D8D4348
:100600007ED075056D0D7CD00D05AE46AC431B0349
:100610001B0B794D52429D41202366469B1B14D3F0
:100620001746F740381800260090744160462F4660
:100630000741E41900989D402818664116D4714678
:1006400071189A4025D5012320E093182A466A4163
:100650005200002B00D0521C1E23203E9B1B002B5F
:1006600061DD3541EE1728186641E8D5001876415E
:100670005B1C9A4000D3401C4B05F3181524E34043
:1006800010D3002B52D071467118D30FC01802D36B
:10069000491C05B0F0BD0123DB079A42F9D140089F
:1006A0004000F6E701225205B21801D1002853D0CC
:1006B0000123CC0ADB029943891E002A08D1020CCF
:1006C00003D0020C0004103902E002460020203959
:1006D0000023550B05D112020823550B01D15201FD
:1006E0000D23550C01D112011B1DD50C01D1920017
:1006F0009B1C150D01D152005B1C2025EE1A01E058
:100700002CE022E00546F54015439840CA1AE1075F
:1007100069181305C918002ABBDA03204007081816
:10072000C10FC9070FE071466118B2E7F107400831
:100730000843711071444A000CD001235B059A42B2
:10074000A7D2C90FC9070020A3E74905490D26D143
:10075000002001E00028F4D100219AE7284D66002E
:10076000002801D0012100E0002171185F00002A5B
:1007700001D0012600E00026BE19224FA94210D860
:10078000AE420ED8B14208D001256D05E94206D02F
:100790001946A802414010467BE79C4201D0214601
:1007A00077E70020394674E710B50C465C4005D564
:1007B0000124E4076340FFF70CFF10BDFFF778FE4C
:1007C00010BD30B40C465C4004D50124E4076340FE
:1007D00030BC6DE630BCFCE670B50124E407614036
:1007E0000D465D4002D4FFF763FE70BD6340FFF726
:1007F000F0FE70BDFF0700000000F0FF0000F07F7A
:100800000000E0FF0000F87F0346CA02400D10B56B
:1008100010430A1504D00124E4072043002A05DB15
:100820000A4CA21A04D4D040FF2A00DD002010BDDB
:100830004A00002B01D0012000E000201018012206
:100840005205D042F2D8C817C04310BD1E040000A4
:100850001F22030C02D10F22000402D0030E03D08A
:1008600004E00020014670470002083A030F01D15E
:100870000001121F830F01D18000921E002801DBAE
:100880004000521E120551184205C0124118104670
:100890007047C10FC90700D040420122920711439F
:1008A000D6E701218907D3E7F0B58B4C0F09254620
:1008B00089B0BD437BD01D092646AE43FAD00E4613
:1008C0005E402740F60F3E43254071D0240121426F
:1008D000FBD0FF24AD19A4042D1B039501252D0584
:1008E000DB02DB0AC9022B43C90A29431E010901A5
:1008F000040F130F050121431701880B8203914355
:100900002D098C46A90B1E438A039543B30B9A030A
:1009100096433F09BA0B9403A74302962E467E43A3
:100920000497B6464E19D7190C46019654430597BD
:100930007E43371B7646BF1B3601B646BE0B3619C3
:1009400000967646BC043719009C01D3641C0094C1
:100950006400002F01D001263443029E049F75439A
:1009600066467E430496760034196E00341900946E
:10097000029C019E1C196643751BAE460694654693
:100980004519059C05956C43594375460891691AAC
:100990000191049E01465143A41B0491611A009CDD
:1009A0000791E10605D061090122114302E072E0DE
:1009B0006EE06109089D00272C0A2D066918049D28
:1009C0007C412A0A2D066918019D6241AC0DAD02D9
:1009D0006D185441079A910D920255196141029A7E
:1009E000644658435443069B059A5A43121A131BF4
:1009F0009A0E9B015B187A41010B0005C318514107
:100A0000220A200644195A419A4200D2491C012068
:100A10004002814203D315230226F64302E0142349
:100A20000326F6432020C51AA9401746AF40DA40F6
:100A30000A4320460399D840091473181905511820
:100A4000039A3843D2075140AC4009D00122944068
:100A500006D30022401C5141002C01D14008400027
:100A60001E4A934212D3012203989206904207DB5A
:100A70000520400709181A480143C012414004E00C
:100A8000032040070818C10FC907002009B0F0BDB6
:100A90000020F107FAE705180C464C4111486D4259
:100AA000A04115D394181A465A410E486442904109
:100AB0000ED301204A004005824209D35A008242E7
:100AC00006D35940C90F084AC90700201143DDE782
:100AD00000200649DAE700000000FF07FE070000DB
:100AE000FFFFFF7F0000E0FF0000F07F0000F87FC5
:100AF0000121C9050123411842001B06D3185B0ED2
:100B00000AD0C1100722D206891840075242D142AA
:100B100001D5520089187047090208D50146002AFC
:100B200003D0C10FC907002070471046704742022A
:100B300002D0002002497047072109050143F4E76C
:100B40000000F87FF0B5FF252D04C609C209FF2774
:100B500004462E400137CB093E4348402A402B40F3
:100B60000746002A6BD0002B69D0AA4267D0AB425F
:100B700065D0002800DA32460125ED0529432C43D3
:100B800009022002090AD21A4B0C7F24E31A434CB3
:100B9000000A7C44E35C7D242404121914145B00D5
:100BA000A218884201D3521C00E0400049420C4682
:100BB0005C4324115C43DB016415E318040A5C43C5
:100BC000C502200D0C4644436419250A5D432303E6
:100BD000EC0C0D46654300030019EB184C42A34290
:100BE00001D35B18401CD4052018002B07D05B00F4
:100BF000C91804D3401C002901D1400840003F21FE
:100C000089048A4209D3002A08DC1106090F04D09E
:100C1000032149074018C00FC007F0BD0122410061
:100C2000120689187F2252069142F6D20521490701
:100C3000C84201D59010F0BDFF20C005F0BD002FC7
:100C400000DA32461648AA4207D2AB4205D2190250
:100C5000090E17D0F80FC007F0BDFF2563002D0661
:100C6000AB42F9D84900A942F6D8AB4201D1A9421A
:100C7000F2D0A94201D1002101E061004908D0056C
:100C80000843F0BD1102090EFBD0FF200243D0053E
:100C9000F0BD0A460146104654E700001E41000020
:100CA0000000C07F0102C21504D00123DB071943F5
:100CB000002A0ADB9E239A1A02D40846D0407047C5
:100CC000FF2241001206914201D900207047C0174F
:100CD000C04370471F22030C02D10F2200041CD016
:100CE000030E01D10002083A030F01D10001121FC7
:100CF000830F01D18000921E002801DB4000521EAC
:100D0000D2055118021251181922904004D3491CDF
:100D1000002801D14908490008467047C10FC9079A
:100D200000D04042012292071143D3E701218907F5
:100D3000D0E710B500F092FA006810BD10B5044677
:100D400000F08CFA046010BDF0B5F94D0C091E09D5
:100D50002C402E402F468BB0A7437DD0B543FCD00E
:100D6000002E7AD0002CFCD00D465D40ED0F2543BF
:100D7000AC1BFF25AD0464190894C502440DC902DB
:100D80002143500DDC0204430120C007014304430A
:100D9000D2020191200C110C00958C4601042346CF
:100DA0008B430A9161460904E24D8A430991010A85
:100DB0007D4449198039097805464D4301266D184F
:100DC000F605751B6943C90C640B891C4C436418F8
:100DD000B5012C1B250C2E04B4434C434D43210C70
:100DE000691889090591009DE90701D00121C9070A
:100DF00004912C4601996708CD072F434C08059DA7
:100E0000E10B4D432D0C29466646754302950D4670
:100E100045432E46029D7D1BB44100950D465D4322
:100E200001942C0C2F040D465543AE462D0C3D432A
:100E3000029503947546049C2D04641B049406D209
:100E4000029C039D641C002675410395029401AC2D
:100E500070CC009F7D1B01E03EE162E1B4410904DA
:100E60000095079101940599A4086143090C0C466B
:100E70004443650BE7040C4666467443A646640B80
:100E80003C43039502947446049DE4042C1B049493
:100E900006D2029C039D641C0026754103950294B2
:100EA00001AC70CC009F7D1BB44101940C465C43A7
:100EB0000095650FE7000C465443A646640F3C437B
:100EC000039502947446049DE4002C1B049406D2FE
:100ED000029C039D641C002675410395029401AC9D
:100EE00070CC009F7D1BB441AE09AF06049DC900C4
:100EF000AD092F43049DA406AD060495079D344318
:100F000069180791059DE10B4D432D0C2946664656
:100F1000754302950D4645432E46029D7D1BB44107
:100F200000950D465D4301942C0C2F040D4655434E
:100F3000AE462D0C3D43029503947546049C2D044A
:100F4000641B049406D2029C039D641C0026754118
:100F50000395029401AC70CC009F7D1BB4410194B9
:100F60008C050694079C890A611800950791019CDD
:100F70000599A4086143090C0D464543680BEF042D
:100F80000D46644665436C0B3C43049FED047D1B9A
:100F9000AC4602D20025641C6841009E019D371BAF
:100FA00085410846584301950C46460FC5005443F9
:100FB000600F28436546E4002C1B02D20025401C2C
:100FC0006E41019D3F1AB5412846BD098006284360
:100FD0008446A009BF064E020699A4067618074368
:100FE000079D002068410A99079019430020099B3A
:100FF00000906046FF1913434041E20F64003A43FA
:10100000A4460446D71A8C41A04203D9012000907F
:1010100020463A46C70F941840416246D20F2243F9
:10102000644664000494009CBE466400D71AA4463B
:10103000044602978C417746002F01D1A04204D983
:101040006046401C8446029A2046C40FA646941867
:101050004041049A0546D20F224364466400D31AE5
:101060008D417146002901D1A84202D928461A466D
:10107000641C10430122002800D0164361020020A6
:10108000079B891904465C410223002C02DB4918A6
:1010900013466441089DCE0A2D145D194B05670562
:1010A000E10A2C050D1908993E43C9076940002B38
:1010B00008D0934006D30022761C5141002B01D169
:1010C000760876001C4A002D43DB154241D0AA4326
:1010D0003FD030460BB0F0BD06180D464D41174CC1
:1010E0007642AC411AD395181C465C41134A6D42B6
:1010F000A24113D3012252054C00D4420AD15C0014
:10110000D4420BD04B4002D592021143E2E7490092
:101110004908DFE75940C90FC90718E0002008490E
:10112000D8E7054801420DD10342F7D0F2E70000AD
:101130000000FF07244000000000F07F0000E0FFF7
:101140000000F87F114859400143C012414000207F
:10115000C0E70123089A9B069A4205DC0322520746
:101160008918C90FC907B5E7052252078918074A28
:101170001143D2125140ADE770B515461C460246E8
:101180000B4628462146FFF7DFFD70BDFFFFFF7FBE
:1011900030B50346CA02400D1043164D164C0A15D1
:1011A00002D02043002A06DBAA1A002A12DDD04012
:1011B000FF2A0BDC30BD5205520D01D14000400822
:1011C000AA1A07D4D0404042FF2A01DD002030BDDA
:1011D0000028FCDD4A00002B01D0012000E00020A7
:1011E000101801225205D042F0D8C817C043604001
:1011F00030BD00001E0400000000008070B50546F0
:101200004800440D124B0020002C0AD0634008D047
:101210009A4206DA6642B24203DD12054019514194
:1012200070BD002C08D0002B09D0C90FC907002AB7
:10123000F6DB084A114370BDC90FC90770BD2846C7
:101240000A03104302D00020034970BD284670BD38
:10125000FF0700000000F07F0000F87F00487047A3
:1012600088060020F8B5224C4E00069DA6420AD8FA
:10127000A64201D1002806D15E00A64203D8A642AC
:101280000AD1002A08D00D24240425422CD0294656
:10129000002000F0DAF8F8BD0C461C430CD499424B
:1012A00002D0EFF30080F8BD904202D0EFF300804F
:1012B000F8BDEFF30080F8BD09242407E5008B4258
:1012C00006D0EFF30080A043591A06D2284304E069
:1012D000101A05D3EFF30080A04380F30088F8BD17
:1012E000EFF30080A043F1E7009500F0C5F8F8BDEA
:1012F0000000E0FFF0B53D4B02460C461C400020CC
:10130000002C63D03A4D8B4366D000296BDB0B0D6C
:101310001D05A94301252D0529430124FD33E34083
:1013200001D392184941FF3381339C468B02940DBF
:101330000121234389074C42920200271B198C107C
:101340005D1A04D42D1B02D42B466500491992184E
:101350005B416408F4D15C1A08D40125ED07EE174F
:101360005519744102D42A462346491C94185B41FE
:10137000012292071D46E61B8D4106D4B61A85410F
:1013800003D42B46550034467F1924195B4152087B
:10139000802AEFD1234300D0022338460A22D040CE
:1013A00001D3012213438A0510436246890A1205BC
:1013B0008918002B09D00122D34002D30022401CFF
:1013C0005141002B01D140084000F0BD0B031343F5
:1013D00007D0C90FC907F0BD0803104303D1002986
:1013E00001DB1046F0BD00202946F0BD0000F07F73
:1013F0000000F87F00487047880600207546FFF718
:10140000F9FFAE46050069465346C008C000854650
:1014100018B020B5FEF7AAFE60BC00274908B64602
:101420000026C0C5C0C5C0C5C0C5C0C5C0C5C0C5F3
:10143000C0C5403D49008D46704710B50446C046C2
:10144000C0462046FEF781FE10BDC80212D54803F3
:10145000400F002804D0C803C043012188407047D2
:10146000EFF300800001000903210907084380F31E
:10147000008870470020704710B500200249029A8A
:1014800000F004F810BD00000000F87F10B50C4615
:101490001107090F092904D00A290AD008290CD1FB
:1014A00004E011460820FFF7D0FF06E0510606D5FC
:1014B00001E0510601D50120C007214610BDD1062B
:1014C00007D501010909CC084907000E00060443AD
:1014D00009E0410F20024907000A0143200E0006DF
:1014E0001D22D14101430846E7E7000001491820C9
:1014F000ABBEFEE7260002007047000010B50248B0
:1015000000F078F810BD00007C05002010B50248FE
:1015100000F070F810BD00004406002010B504462D
:101520000068054940181421FEF7D3FE80002064AE
:101530000248E06310BD0000F8FFFDBF000002405C
:1015400030B5056C0124AC40C56B6C600468636009
:101550004368102B036803D099600068C26030BDF7
:101560009A600068C16030BD72B6FEE730B50146D2
:1015700020314B780022022B04D0042383630A70AD
:10158000012030BD03681C680E25AC431C60036855
:101590001C68640864001C600123056C1C46C06B59
:1015A000AC4044604B700A70002030BD70B5002420
:1015B000014620314A78022A03D0042181630124A4
:1015C00016E0026813680E25AB43136002681368C7
:1015D0005B085B0013600122056C1346AB40C56BD2
:1015E0006B604A7000220A70416B002900D0884766
:1015F000204670BDF0B4C16B0D6801680C68042210
:10160000066C1346B3402B420DD063070BD50B6815
:101610009B0602D40B6893430B60016C8A40C16B3C
:101620004A60C16A19E00227B74002462F400123F1
:101630002032002F15D0A70713D50C68A40604D4B8
:101640000C680A25AC430C605370036C022199406E
:10165000C36B596000211170816A002916D0F0BC5B
:1016600008470827B7402F4210D024070ED50C6832
:101670000E25AC430C60046C1946A140C46B61603C
:101680008363537000211170016BE6E7F0BC704773
:1016900070B5040021D0022120462030054641705B
:1016A000226811680E48A3680140606826691843E3
:1016B000E3683343184363691843A3691843E36934
:1016C0001843084310602046FFF728FF0021A1635C
:1016D000012068702970084670BD012070BD0000AF
:1016E0000FC0FFFFF8B504468C4620300178002576
:1016F000012909D00126067041780027012905D06B
:10170000077002252846F8BD0220F8BD022141706D
:10171000A7632068016849084900016061462046C6
:10172000FFF70EFFE06A00282068016802D00E2251
:10173000114306E00A221143016020680168042277
:10174000914301602068016831430160DAE70000DD
:1017500070B5044600F0E6F80546601C02D0044867
:101760000078241800F0DEF8401BA042FAD370BDC8
:101770001C000020F8B5002303240125BAE02E4602
:101780009E40B44632407CD00E79B607B60F012E8B
:1017900001D0022E17D186682746B6465E00B740B4
:1017A00000967646BE43B646CF68009EB740764662
:1017B0003743876046686746BE430F79FF06FF0FD1
:1017C0009F40374347600E79F643B6070ED0C66890
:1017D0002746B4465E00B646B7406646BE43B446AA
:1017E0008F687646B74066463743C7600E79B607BE
:1017F000B60F022E14D1DE08B60036180096366AEF
:101800005F07B446FE0E0F27B646B7406646BE4396
:10181000B4460F697646B74066463743009E376246
:1018200006682746B4465E00B646B7406646BE43E5
:101830000F79B446BF07BF0F7646B74066463743B9
:1018400007604E68B603B60F53D02D4FBE692E43C6
:10185000BE61BE699F08F607F60F2A4EBF00BE198B
:101860000096B6680F27B4469E07360FB646B740B7
:101870006646BE430927FF06B446B84202D1002798
:1018800010E036E0204FB84201D101270AE01F4F97
:10189000B84201D1022705E01D4FB84201D103270C
:1018A00000E005277646B74066463743009EB7609E
:1018B000184E36684F689643FF0300D51643154F00
:1018C0003E607E684F689643BF0300D51643114FB4
:1018D0007E60BE684F689643FF0200D516430D4FE9
:1018E000BE60FE684F689643BF0200D51643094AA2
:1018F000D6605B1C0A681646DE4000D03FE7F8BDA4
:1019000000100240000001400004004800080048A8
:10191000000C004800040140002A01D0816170479A
:101920008162704701488068704700001C000020F9
:101930000248816802788918816070471C00002085
:1019400010B506480168102211430160032000F021
:1019500007F800F027F8002010BD0000002002402A
:1019600070B504460D4D7D202978C000FEF7B1FC0E
:1019700001460B480068FEF7ACFC00F0D1FD0028E2
:1019800009D1042C07D200222146401E00F02AF87B
:1019900000206C6070BD012070BD00001C000020A4
:1019A0002800002008B5084881690122114381619F
:1019B000816911400091C26901040A43C261C06992
:1019C0000840009008BD000000100240002805DB20
:1019D000C106C90E01208840014908607047000017
:1019E00000E100E010B501F039FD10BDF8B5054685
:1019F0000068354CC00352D5E0690026C00007D40A
:101A0000E16920040143E161E1690140012600919F
:101A10002E480168C90510D4016882151143016080
:101A2000FFF780FF074604E0FFF77CFFC01B642838
:101A300024D826480068C005F6D5206A03273F024F
:101A4000384020D06968394081421CD0206A226A1F
:101A5000B843012109040A432262226A8A432262AE
:101A60002062C0070FD0FFF75DFF009008E0FFF78E
:101A700059FF0099411A1648814201D90320F8BD47
:101A8000206A8007F3D5206A6968B843084320625A
:101A9000002E04D0E169012000078143E16128782C
:101AA000C00705D0206BA968800880000843206328
:101AB0002878800605D5206B10218843E968084303
:101AC00020630020F8BD00000010024000700040BC
:101AD00088130000F8B50F46060059D03A4D286823
:101AE000C007C00FB84209D22868400840003843F8
:101AF00028602868C007C00FB84249D13068334C0D
:101B000081070CD5400704D5606807210902084306
:101B100060606068F0218843B16808436060307895
:101B2000C00726D0706801280ED0216802280ED088
:101B3000890700292CDA61688908890001436160FE
:101B4000FFF7F0FE00900DE021688903F1E78901BD
:101B5000EFE7FFF7E7FE0099411A1D48814201D9DE
:101B60000320F8BD60680C21084071688900884234
:101B7000EFD12868C007C00FB8420BD928684008C9
:101B80004000384328602868C007C00FB84201D021
:101B90000120F8BD3078400706D5606807210902AA
:101BA0008843F1680843606000F028F86168094ADA
:101BB0000906090F515CC840074908600320FFF778
:101BC000CFFE0020F8BD00000020024000100240BF
:101BD000881300009C4C0008280000200448054998
:101BE00000684968044A4905490F515CC84070477C
:101BF0002800002000100240AC4C000810B514A3CF
:101C00000FCB88B06C460FC415A30FCB0FC4184A76
:101C100051680C200B4603401648042B16D0082BA5
:101C200014D18B021B0F6C46E45CD26A04AB120722
:101C3000120F9A5CC90305D500231946FEF7A8FACE
:101C4000214601E020460C4901F0DAFB08B010BD46
:101C500002030405060708090A0B0C0D0E0F1010ED
:101C60000102030405060708090A0B0C0D0E0F10EC
:101C70000010024000127A0000093D00FEB5040089
:101C800070D02078DC4DC0074AD068680007800F0C
:101C9000012807D068680007800F022809D168680A
:101CA000C00306D5286880033AD560680028E7D0CD
:101CB00036E06168012914D001208004002901D098
:101CC000052914D02A68012109048A432A60296859
:101CD000814329606068002816D0FFF723FE06467E
:101CE0000EE028680121090408432860F2E729680A
:101CF00001432960F5E7FFF715FE801B64286ED8C5
:101D000028688003F7D50BE0FFF70CFE064604E0D9
:101D1000FFF708FE801B6428F1D828688003F7D4F9
:101D200020780126800700283CDA68680007800FC9
:101D300007D068680007800F022809D16868C003CF
:101D400006D42868800716D5E06801280AD112E079
:101D5000E0680028286816D030432860FFF7E2FDCD
:101D6000074605E043E1FFF7DDFDC01B0228C6D8AA
:101D700028688007F7D52868F82188432169C900B9
:101D8000084328600EE0400840002860FFF7CAFDC5
:101D9000074604E0FFF7C6FDC01B0228AFD828683D
:101DA0008007F7D42078000722D5E0690028686A08
:101DB0000ED030436862FFF7B5FD074604E0FFF739
:101DC000B1FDC01B02289AD8686A8007F7D50FE0DA
:101DD000400840006862FFF7A5FD074605E09DE06A
:101DE000FFF7A0FDC01B022889D8686A8007F7D4D6
:101DF000207804274007002860DA00200190E86975
:101E0000C00008D4E969B8060143E961E969014005
:101E100001200091019079480168C90511D4016839
:101E2000821511430160FFF77DFD009005E0FFF78B
:101E300079FD0099401A642870D870480068C00580
:101E4000F5D5A06801280AD0002801D0052810D0B7
:101E5000286A400840002862286AB84301E0286ADE
:101E600030432862A068002812D0FFF75BFD009085
:101E70000AE0286A38432862F1E7FFF753FD00992A
:101E8000411A5F48814249D8286A8007F5D50DE09C
:101E9000FFF748FD009006E0FFF744FD0099411A66
:101EA000574881423AD8286A8007F5D4019800281B
:101EB00004D0E969012000078143E9612078C00668
:101EC00035D5606901280CD0401D686B23D038439C
:101ED0006863686B400840006863FFF723FD0646AF
:101EE00022E0686B38436863686B30436863FFF7D0
:101EF00019FD064604E0FFF715FD801B02285BD89C
:101F0000686B8007F7D5686BF8218843A169C90021
:101F1000084368630BE0B8436863F4E74CE0FFF7FD
:101F200001FD801B022847D8686B8007F7D4206A20
:101F300000285ED069680907890F022942D001266E
:101F400036060228286805D0B0432860FFF7EAFC6F
:101F5000044633E0B0432860FFF7E4FC074604E0A2
:101F6000FFF7E0FCC01B022826D828688001F7D4C0
:101F7000E86AE16A000900010843E862616AA06A50
:101F8000084369683D221204914308436860286849
:101F900030432860FFF7C6FC044604E0FFF7C2FCAC
:101FA000001B022808D828688001F7D521E0FFF738
:101FB000B9FC001B022801D90320FEBD286880015E
:101FC000F5D416E00128F8D06868E96A0122120405
:101FD000636A02409A420AD10907E26A090F9142F4
:101FE00005D10F2189040840A16A884201D001204F
:101FF000FEBD0020FEBD0000001002400070004049
:102000008813000070470000F8B5016804464A686C
:102010008868C043430606D5C30704D1D3435B0693
:1020200001D4E16C05E0830706D4D3431B0603D437
:10203000216D20468847F8BD830603D5430601D5A8
:10204000C305F8D4D3439B06F5D423464506403355
:10205000002D09DB5D7F032D48D0256E0426354316
:102060002566CD688D680095860601274025002EDF
:1020700007DB266E3E4326668E6800960E68AE43EA
:102080000E60C00506D4206E082108432066206833
:1020900080680090206E0028CDD020684168E0263E
:1020A000B14341605F77900701D4D00722D0206808
:1020B0004168890889004160A06D104E002808D051
:1020C0004663A06DFFF772FA002802D0206E284305
:1020D0002066606D0028AED04663606DFFF766FA3B
:1020E0000028A8D0206E28432066F8BDC8688868FC
:1020F0000090F8BD2046FFF785FFF8BD252B0008AE
:10210000F8B504000CD0606A002500280AD02561CB
:10211000656126464036A562707F002808D00BE036
:102120000120F8BD6168C81FFD38F2D0E561F0E715
:102130003577204600F05CF802227277206801684B
:102140004023994301600723E1681B02994201D9AA
:10215000002001E0012000030F273F02B94202D016
:10216000994200D0A562FF236168053319402127F9
:10217000A368BF023B40194323691340227D1943E2
:10218000D207D20F11430123A2695B021A40114307
:10219000E26938231A401143226A80231A4011430E
:1021A000A26A9B011A40114322681160A1690422AE
:1021B000090C1140626A10231A401143626B082314
:1021C0001A4011430F23E2681B021A4011430122F7
:1021D000120310400143206841602068C169521019
:1021E0009143C1612566012070770020F8BD000091
:1021F000F0B587B0064614216846FEF768F8264910
:102200003068884246D125498A69801402438A6130
:102210008A69024005924A69400102434A614A695B
:10222000024005924A69400002434A61496902241A
:10223000014005918020002503276A46B1C209208C
:102240006946C0060495FFF795FA08206946B1C1B2
:10225000694613480495FFF78DFA134C1148206026
:102260001020A560606025616561A5618020E56141
:10227000E0602046FFF70CFA002801D0FFF774F960
:1022800074650022114619206662FFF7ABFB192026
:10229000FFF79CFB07B0F0BD00300140001002408A
:1022A00000040048300002407C050020FFB50546D0
:1022B00004464035287F002781B01646012809D002
:1022C00001202877FFF72EFB0090687F012804D0BB
:1022D000022795E0022005B0F0BD0298002872D0D8
:1022E000002E70D003206877002020660299A16339
:1022F000A687E6872064A880E8802065E064012244
:10230000A068D2034021904208D1206802688A4325
:102310000260206802680B021A43026020680268AB
:10232000520602D402680A4302600721E0680902EB
:102330008842606826D9002801D0012E1ED1A06BEA
:1023400021680088C86006E020688168890709D58F
:10235000A16B0988C160A06B801CA063E08F401E48
:10236000E0870BE0FFF7DEFA0099411A04988142FA
:1023700002D3401C02D039E0002837D0E08F00287B
:10238000E2D126E0002801D0012E1FD1A06B2168E8
:102390000078087306E020688168890709D5A16B79
:1023A00009780173A06B401CA063E08F401EE0879A
:1023B0000CE0FFF7B7FA0099411A0498814203D361
:1023C000401C03D012E01AE000280FD0E08F002854
:1023D000E1D12046009A049900F0F7FB002801D0D3
:1023E00020202066A068002802D005E0032707E02F
:1023F0002068C16880680090206E002800D0012706
:102400000120687700202877384664E7F8B505464C
:1024100004464035287F0027012807D0012028776F
:10242000687F0026012803D002276DE00220F8BD56
:10243000002950D0002A4ED0032068772666A16379
:10244000A287E28726642665E664AE80EE800122DC
:10245000D203A1685010914208D121680A68402334
:102460009A430A6021680A6802430A60626D28493B
:10247000D162626D27499162626D27491163616D76
:102480004E6321684A6882434A600722E16812026B
:10249000914210D8616D01224969920291420AD19C
:1024A000E18FC90721684A6817D002434A60E08F6C
:1024B0004008401CE087E38F2268A16B0C32606DFE
:1024C000FFF710F900280DD0206E10210843206678
:1024D00001276F7718E0012716E082434A60E08FFA
:1024E0004008E7E720680168490603D401684022F4
:1024F0001143016020684168202211434160206837
:1025000041680222114341602E773846F8BD000031
:10251000592B0008632B0008372B000870477047C1
:10252000094910B5401E884201D9012010BD074C51
:1025300060610321081F00F091FF0020A0610720C7
:102540002061002010BD0000FFFFFF0000E000E060
:1025500070477047F8B502680446D06911689668FC
:102560009C4B05461D402023002D75D0F7079A4D42
:10257000FF0FBC460D402F436DD02546C707803561
:10258000002F06D0CF0504D5012717622A683A43E9
:102590002A60820708D5F20706D0276802223A622D
:1025A0002A6804273A432A60420708D5F20706D072
:1025B0002668042232622A68022632432A60020711
:1025C0000AD50A461A406646324305D026680822D4
:1025D00032622E6816432E60020508D54A0106D5E0
:1025E00001222668D20232622A681A432A602A68C7
:1025F000002A39D0800606D5880604D5616E0029E8
:1026000001D020468847286821688968490602D495
:10261000282108422DD0204600F0BAFC21688868A5
:10262000400622D5EFF31080012282F310888B68D8
:10263000402293438B6080F31088206F002814D0D1
:1026400066494163206FFEF7B1FF00280CD0206F70
:10265000416B08E000E012E0850610D58D060ED52E
:10266000616E9DE020468847F8BD2046FFF771FF68
:10267000F8BD2046FFF76DFF00202860F8BD256EED
:10268000012D7DD1C5067BD5CD0679D510261662E4
:1026900022689068254640064035002845DA216FBB
:1026A000086840680004000CE8D02F8B8742E5D909
:1026B00068838869202833D0EFF31080012181F3EB
:1026C000108811683701B943116080F31088EFF367
:1026D0001080012181F3108821688A685208520015
:1026E0008A6080F31088EFF31080012181F3108855
:1026F00021688A684027BA438A6080F31088E367BC
:1027000000202066EFF31080012181F310882168FA
:102710000A68B2430A6080F31088206FFEF726FF34
:10272000288B698B401A81B231E0288B698B401A63
:1027300081B2688B0028A1D000299FD0EFF31080D0
:10274000012585F310881568FF272137BD431560E3
:1027500080F31088EFF31080012282F31088226842
:1027600095686D086D00956080F31088E367002020
:1027700020666066EFF31080012282F3108800E08B
:1027800009E022681368B343136080F31088204681
:10279000FFF7DEFEF8BD050606D50D0604D5A16ED1
:1027A000002900D05EE7F8BD4006FCD54806FAD502
:1027B0002046EFF31081012484F31088146840252B
:1027C000AC43146081F3108883670021816600F0B8
:1027D000FFF8F8BD0F080000200100047D2F00085D
:1027E00010B5040003D0A06F002802D007E001203C
:1027F00010BD002174200155204600F027F8242048
:10280000A06720680168490849000160204600F07F
:1028100097FC0128ECD0606A002802D0204600F026
:1028200016FB206841680122D20291434160206872
:102830008168082291438160206801680122114368
:102840000160204600F068FB10BD0000F0B587B0C5
:10285000064614216846FDF73AFD2949306888424A
:102860004BD128498A690120800302438A618A6921
:10287000024005924A69C00002434A614969022741
:1028800001400591001200900320039000250124CF
:1028900009200197029569460494C006FEF76AFF75
:1028A000A00200900320039009200197029469463A
:1028B0000494C006FEF75EFF1348144C21C4256043
:1028C000A560E56025618020656160600F48083C77
:1028D000FEF7DEFE002801D0FEF746FE0C48016838
:1028E0000215114301603467002201211B2066623A
:1028F000FFF778F81B20FFF769F807B0F0BD00007C
:1029000000380140001002405800024044060020F8
:102910000000014070B5C36F202B2BD100290BD0D4
:10292000002A09D0012483682403A34206D1036945
:10293000002B03D1CB0701D0012070BD03466033CB
:102940001C7D012C16D001241C750023036604682D
:1029500063681B020BD5EFF31083012585F3108804
:1029600025680126B6063543256083F3108800F0FC
:1029700081FC70BD022070BD14480022037801461E
:102980008988412B18D0422B19D0432B1AD0442BC5
:102990001AD00A225143C91830398180C1883C2994
:1029A00009D9652907D0662905D0672903D0682988
:1029B00001D03B21C1807047491EC18000E00181E8
:1029C0008280EBE74181FBE78181F9E7000000208D
:1029D0007047FEE708B50C48416901221143416187
:1029E000406910400022009011460A20FEF7FAFFCD
:1029F0000A20FEF7EBFF002211460B20FEF7F2FF44
:102A00000B20FEF7E3FF08BD0010024010B586B0B2
:102A100014216846FDF75BFC154842690121C90491
:102A20000A43426142690A400592426989100A4399
:102A3000426142690A400592426949000A43426183
:102A4000406909240840E406059000222021204620
:102A5000FEF762FF202000900021012002910391E7
:102A6000019069462046FEF785FE06B010BD0000C5
:102A70000010024010B511480F490160FF210531D7
:102A8000416000210722816012020161C2600122BF
:102A9000416152028261016218224162C261816217
:102AA00007220163C2624163FFF72AFB002801D0BD
:102AB000FEF75AFD10BD000000300140180500204F
:102AC00010B50C480A490160E1214902416000212A
:102AD0008160C16001618161C16104220162426162
:102AE0004162FFF77DFE002801D0FEF73DFD10BDDD
:102AF00000380140C0050020FEE7704770B51C4655
:102B000015460E4603B222462946304600F0E8FE3E
:102B100070BD000010B50248FFF776FA10BD000046
:102B20001805002010B5406A002146221152C187C5
:102B3000FFF768FA10BD10B5406A01684A6892084C
:102B400092004A60016E10221143016601225D214C
:102B50000A54FFF757FA10BD10B5406AFFF7DFFCC3
:102B600010BD38B50546446AFEF7DCFE024628680B
:102B70000068800625D4206841682025A94341606B
:102B8000206841680223994341606421204600F097
:102B90001CF8002802D0206E28432066A06800217F
:102BA000002803D12068C26880680090E187012175
:102BB0005D200155206E002803D02046FFF722FA41
:102BC00038BD2046FFF7AAFC38BDF8B50F460B46C6
:102BD00015460092032104460022C90200F01CF8A9
:102BE0002026002812D13B46002280212046009555
:102BF00000F07EF8002809D103213B46002249025B
:102C00002046009500F008F8002803D0206E3043DD
:102C100020660320F8BD0000FFB585B00E460446CF
:102C2000002069460E9D17460871FEF77BFE411B8A
:102C30000898451AFEF776FE0390206823210C3091
:102C400002902A4800684843000D684346E003208C
:102C50004002864206D1002F04D1029801786846CE
:102C6000017100790898401C39D0FEF75BFE03998A
:102C7000401AA84205D2002D03D0009800282BD07E
:102C80002BE020684168E022914341606068C11FE9
:102C9000FD390CD10121A068C903884202D0491135
:102CA000884204D1206801684022914301600120DC
:102CB000A16A4003814207D121680A6882430A6001
:102CC00021680A6802430A600120403460770020CE
:102CD0002077032009B0F0BD0025401E0090206839
:102CE00080683040B842B2D10020F3E728000020CD
:102CF000FFB581B01E4604460A9DFEF713FE401B39
:102D0000351AFEF70FFE0746264800684001000D01
:102D1000684339E0701C38D0FEF704FEC01BA8429F
:102D200005D2002D03D0009800282BD02BE020687E
:102D30004168E022914341606068C11FFD390CD1B8
:102D40000121A068C903884202D04911884204D1F8
:102D5000206801684022914301600120A16A40037C
:102D6000814207D121680A6882430A6021680A68A3
:102D700002430A600120403460770020207703205E
:102D800005B0F0BD0025401E0090206881680298C3
:102D9000884305D0002103988142BBD10020EFE792
:102DA0000121F8E7280000207047000010B5054A0F
:102DB00005490648FFF72AFB0448006881680906B0
:102DC000FCD410BDEC0400002C00002018050020ED
:102DD00010B5FEF7ADFD10BD70B594B0302168465A
:102DE000FDF775FA00240E9413941020099402251F
:102DF00004900D940F940520129401260095C004B0
:102E00000C94109403960A90119408950B946846BC
:102E1000FEF734FF002801D072B6FEE707200C90C1
:102E20000E9401210D950F940CA8FEF753FE002877
:102E300001D072B6FEE710A810961294FEF7D6FDE8
:102E4000002801D072B6FEE714B070BD704710B50F
:102E5000818CC90707D001684A6801235B049A4343
:102E6000836A1A434A60818C890707D501684A68DA
:102E700001231B049A43C36A1A434A60818C4907A1
:102E800007D501684A6801239B049A43036B1A43E0
:102E90004A60818C090707D501684A680123DB0372
:102EA0009A43436B1A434A60818CC90607D502686E
:102EB000916801231B039943836B19439160818CB3
:102EC000890607D501688A6801235B039A43C36BAF
:102ED0001A438A60818C490612D503685A68012119
:102EE0000905046C8A4322435A60026C8A4207D166
:102EF0000268516803235B059943436C1943516091
:102F0000818C090607D501684A680123DB04806CBF
:102F10009A4302434A6010BDF8B50446002680304B
:102F20000660FEF7FFFC054620680068124F0007A8
:102F300009D501212B46002249052046009700F0C3
:102F4000E7F900280DD12068006840070BD5012162
:102F50002B46002289052046009700F0D9F9002869
:102F600001D00320F8BD2020A067E067266660340A
:102F700026750020F8BD0000FFFFFF0110B5406A74
:102F80000022014640314A834A82FFF7E2FA10BD2F
:102F900010B5EFF31081012282F3108802681368E4
:102FA000FF242134A343136081F31088EFF31081D1
:102FB000012282F31088026893685B085B009360CB
:102FC00081F31088016E01290BD1EFF310810122EA
:102FD00082F31088026813681024A343136081F3FE
:102FE00010882021C16700210166416610BD70B5BF
:102FF000014640318B8BC46F0268222C04D090694B
:1030000008210843906170BD928C446D1A40228063
:10301000426D921C42654A8B521E4A834A8B002A9B
:10302000F1D1EFF31082012383F3108803681C6849
:10303000FF252135AC431C6082F31088EFF310822A
:10304000012383F3108803689C68640864009C6013
:1030500082F310882022C26700224266036E012B91
:1030600002D0FFF789FC70BD0266EFF310820123E6
:1030700083F310880468256810239D43256082F33C
:1030800010880268D469E443E40600D41362098B13
:10309000FFF75EFA70BD70B5014640318B8BC46F8F
:1030A0000268222C04D0906908210843906170BD09
:1030B000928C1A40436D1A70426D521C42654A8BC5
:1030C000521E4A834A8B002AF1D1EFF3108201236A
:1030D00083F3108803681C68FF252135AC431C600E
:1030E00082F31088EFF31082012383F310880368C2
:1030F0009C68640864009C6082F310882022C26788
:1031000000224266036E012B02D0FFF735FC70BD32
:103110000266EFF31082012383F3108804682568A8
:1031200010239D43256082F310880268D469E4432C
:10313000E40600D41362098BFFF70AFA70BD0000A1
:1031400070B5044680682169E26908436169002519
:103150001143226808431168404B19400143116034
:1031600021684868032212039043E26810434860D4
:10317000A169206A084321688A680B231B029A43CD
:1031800002438A6036492068884210D13548006B76
:103190008007800F0ED0012805D0022805D0032813
:1031A0000AD1022109E0042107E0082105E02E49A7
:1031B000884201D1002100E010210120E369C00311
:1031C0002A4A2B4E834223D1002906D0022907D058
:1031D000042907D0082937D108E0FEF7FFFC03E0F7
:1031E000104603E0FEF70AFD002831D06168400078
:1031F0004A088018FDF76DF880B201461039B142D7
:1032000022D81B49491C01400007400F08431DE01C
:10321000002906D0022907D0042907D0082913D194
:1032200008E0FEF7DBFC03E0104603E0FEF7E6FCF7
:1032300000280DD061684A081018FDF74AF880B2DE
:1032400001461039B14201D9012501E02168C86069
:1032500000206066A066284670BD0000F369FFFF8D
:1032600000380140001002400044004000127A0083
:10327000EFFF000070B54165014640310A834A8383
:1032800000224266012385681B03FF249D4204D16E
:103290000569002D31D11B4C2FE0002D29D08A83E8
:1032A00080210A502221C167EFF31081012484F3A9
:1032B00010880468A56801263543A56081F310884D
:1032C0008168994202D10169002918D00E494166EE
:1032D00074210A54EFF31081012282F310880068F0
:1032E0000268FF2321331A43026081F31088002013
:1032F00070BD0569002D00D07F248C83D0E7034981
:10330000E5E70000FF01000097300008EF2F0008FC
:10331000FFB581B005461746044660350A9E55E064
:10332000701C53D0FEF7FEFA0499401AB04230D810
:10333000002E2ED020680168490747D5C069C043D8
:10334000000543D401202168C0020862EFF3108019
:10335000012181F3108821680B68FF22A132934379
:103360000B6080F31088EFF31080012181F3108847
:1033700021688A68520852008A6080F310882020F1
:10338000A067E0678034206000202875032005B026
:10339000F0BDEFF31080012181F3108821680B68E4
:1033A000FF22A13293430B6080F31088EFF310806B
:1033B000012181F3108821688A68520852008A60CE
:1033C00080F310882020A067E067DDE72068C169EE
:1033D0000298884304D00020B842A1D00020D6E74C
:1033E0000120F9E710B50448FFF7B4F801220349BA
:1033F0000148FFF78FFA10BDC00500200000002033
:10340000F8B5040C8BB2264682B25E430D0C104612
:10341000370C5843360480190021794116466E4313
:10342000370C36048019794126466E438919F8BD58
:103430004900CA020243100000D004204A0D01D006
:1034400001221043044A490D914201D1022108434F
:10345000012800D105207047FF0700008307FF22E5
:10346000DB0E9A408907090E9940002808DB830883
:1034700009489B001B181868904308431860704760
:103480000007000F0838830804489B001B18D86900
:1034900090430843D861704700E400E000ED00E08D
:1034A000F8B504464F1EC8000838211815461E46B8
:1034B000086849683A4606239A4310D02A4633469C
:1034C000FDF7F2F93A46D200083AA3181A687F1EAF
:1034D0005B68FDF769F906223B469343EED1022F64
:1034E00023D0042F11D0062F2FD12A463346FDF7C3
:1034F000DBF9E36AA26AFDF757F92A463346FDF77E
:10350000D3F9636A226AFDF74FF92A463346FDF77D
:10351000CBF9E369A269FDF747F92A463346FDF77F
:10352000C3F963692269FDF73FF92A463346FDF77F
:10353000BBF9E368A268FDF737F92A463346FDF781
:10354000B3F963682268FDF72FF9F8BD002210B5C2
:10355000134610460149FDF7F7FB10BD0000F03F90
:1035600010B50122FDF74AFE10BD10B5FDF71CF99C
:1035700010BD002210B5134610461146FDF7E4FBBE
:1035800010BD000010B50721024A00200907FDF711
:1035900035FE10BD01030000034A10B500201107DD
:1035A000FDF72CFE10BD000001FDFFFFF8B500F097
:1035B000A9FF00201A4C01271A4DBF077F26F605E8
:1035C000A0612946FDF7BEFA616901F0FFF82169A3
:1035D000FDF7B8FAFDF78CFA00223B4600F0E0F95F
:1035E0000022114BFDF760F900F03CF800220F4B70
:1035F000FDF75AF9FCF71EFFFDF754FBC0B2227B22
:10360000A17A00F08DFF6420FEF7A2F83146A06990
:1036100001F032F8A061A842D3DB0120A561F8BD1A
:103620000000002000007F430000E0BF00E06F408A
:1036300010B50A4A8000145C094B401C5C54491CBC
:10364000145C09B25C54491C401C09B2145C5C5403
:10365000491C401C09B2105C585410BD9C4800081D
:103660002C000020F0B54E00864BCF0F760887B0B7
:1036700005460C469E422ED38348864211D3300322
:10368000000B284304D02846FFF76AFF07B0F0BDBF
:10369000002F03D00020014607B0F0BD284607B038
:1036A000F0BD7A4A284600F0B3FF06D20220FDF7AB
:1036B00045FBFFF767FF07B0F0BD754A754B28461D
:1036C000214600F073FF06D20220FDF737FBFFF71B
:1036D00063FF07B0F0BD704886424AD930466F4953
:1036E000E20FD600884215D26D48784480194368AD
:1036F000026828462146FDF764F802906948039164
:10370000784481190868496800900120C01B019124
:10371000C61B25E0644A654B28462146FDF7C4F8E0
:10372000634A7A4493191A685B68FDF73DF8FDF720
:103730002FFD0646FDF7ADF807465E4A5E4B009149
:10374000FDF7B2F82A462346FDF746F803910290AA
:103750005A4A5B4B38460099FDF7A6F80191009054
:103760000B46009A03990298FDF72BF805460C4684
:1037700017E05448864213D2534A544B28462146F8
:10378000FDF712F8524E0022334600F041FF07D2F7
:103790000022334628462146FDF706F807B0F0BD63
:1037A00000262A46234610461946FDF77DF80746AF
:1037B000024648480B46049105217844FFF770FE05
:1037C0003A46049BFDF770F82A462346FDF704F8B5
:1037D0000691012189070746002E23D002460020CA
:1037E000069BFCF7EEFF059104903A4628462146D9
:1037F000069BFDF759F8059B049AFDF7A5FA019B76
:10380000009AFCF7E9FF039B029AFCF7DAFF00221B
:103810002F4BFCF7E1FF304A96421EDB3205891838
:1038200007B0F0BD0B4600220699FCF7CAFF06461A
:1038300000913A4628462146069BFDF735F8324668
:10384000009BFDF781FA2A462346FCF7BAFF0022C7
:103850001F4BFCF7C1FF07B0F0BD7D233205DB0530
:10386000D21889181D4AFDF7C9FC0D460446FFF71A
:10387000DFFD042801D1FFF78FFE2046294607B05F
:10388000F0BD0000422E86400000F07FEF39FAFEC6
:1038900051302DD5104987C0422ED63FB2A2F03FFD
:1038A0001A16000014160000FE822B654715F73F1C
:1038B000D21500000000E0FE422EE63F763C79354E
:1038C000EF39EA3D0000303E9C7500883CE4377ECD
:1038D0000000F03F6A15000003FCFFFF18FCFFFF2B
:1038E00070B505460C20164643430A461C4619B2DD
:1038F0001046FFF79DFE201D01B22846FFF798FEF7
:10390000083421B23046FFF793FE70BD08B50020A1
:1039100000906423012269460348FEF7C7FC0A2091
:10392000FDF716FF08BD000018050020FEF708F897
:10393000FFF752FAFFF76AF8FFF74CF8FFF79AF82B
:10394000FFF7BEF8144800680168202211430160A7
:10395000FFF7DCFF00F0D6FD104CE088652801D1B0
:1039600000F0D0FD237BA27A217AE08800F0E9FD07
:10397000E088662801D100F011FDE088672804D1B5
:10398000227BA17A207A00F0CBFDE0886828E4D180
:10399000FFF70CFEE1E70000C0050020000000205A
:1039A000F0B51FB496B084460C460246199D18988F
:1039B0000390490068006300490840080193002A09
:1039C00001D0012600E000269E19FE4BF6185B1080
:1039D0009E422BD36E00039F0296002F00D001273A
:1039E000F719F84EF84BBE199E421FD3039E0346AB
:1039F000F64F334309D03B469C4201D1002A04D004
:103A0000019B002A05D0012604E0002039461BB0A6
:103A1000F0BD00269E19EE4B9E4207D8039F029EE2
:103A2000002F00D00127F6199E4207D92B46604689
:103A30002146189AFFF799FD1BB0F0BD0023002C1A
:103A400029DAE44EB04226DAE34EB04201DB02232B
:103A500021E0DE4EB0421EDBE04E070DBE19142EF3
:103A600009DD3427BF1B039EFE400196BE40039F25
:103A7000BE420BD00FE0039F002F0CD11427BF1BB9
:103A80000646FE400196BE40864204D1019BDE07F9
:103A9000F60F02239B1B0E46164318D1002D16DA93
:103AA000002C03D0022B01D0012B06D00220FDF701
:103AB00045F9FFF74BFD1BB0F0BD0220FDF73EF9C5
:103AC000FFF744FD0122D20751401BB0F0BD039E19
:103AD000002E61D1BF4EB04220D1C148844201D1F5
:103AE000002A08D0B948814209DB002D10DB189864
:103AF00029461BB0F0BD0020B4491BB0F0BD002D1D
:103B000006DA01222946D207189851401BB0F0BDB1
:103B1000B4497944086849681BB0F0BDAB4FB8425E
:103B200025D1002D1FDA002904D0B14212D1002A7C
:103B300009D018E0002A72D1A649E20F0020D2076E
:103B400011431BB0F0BD0020E20F0146D207114324
:103B50001BB0F0BDB14206DA234600203946FDF71E
:103B6000F3F81BB0F0BD104621461BB0F0BDB142CA
:103B700012DA0126B607B54203D12346104619468C
:103B8000FEE3994EB54207D1261E05DB10463146AD
:103B900000F0E8FC1BB0F0BD67007F081646002A65
:103BA00040D100290AD08B4A914229D1002C0EDD48
:103BB000002D1CDB002011461BB0F0BD022B16D0DF
:103BC000002C14D0012B12D1002C14DB0FE0002CA0
:103BD00028DA002D09DB012B03D000207D491BB022
:103BE000F0BD002081491BB0F0BD012B03D00020A7
:103BF00001461BB0F0BD00200121C9071BB0F0BD7C
:103C0000724A91420ED1002C01DA002B17D0022B00
:103C100006D00020C043FCF73CFE1BB0F0BD90E294
:103C20000120F8E7E217521C94461A4307D00022FD
:103C30000892664C62465B1E1A4307D009E00120D9
:103C4000FDF77CF8FFF795FC1BB0F0BD0022644C3B
:103C50000892674A90427DDD664B674A98421FDDB5
:103C6000914202DC002D05DB4DE05848814217DB14
:103C7000002D48DD0220FDF761F8FFF783FC0546C3
:103C80000E460022534B21460898FCF70DFE0846CD
:103C900071004908C00FC007014328461BB0F0BDA2
:103CA000914215DA002D2EDA0220FDF747F8FFF7D2
:103CB00069FC05460E460022464B21460898FCF753
:103CC000F3FD72005208C80FC0070243114617E007
:103CD0003E4B994223DD002D15DD0220FDF72EF825
:103CE000FFF750FC05460E4600223A4B2146089845
:103CF000FCF7DAFD084671004908C00FC007014310
:103D000028461BB0F0BD0220FDF718F8FFF744FC71
:103D100049004908E20FD20711431BB0F0BD002251
:103D200030463946FCF74DFD012205460E46D2438A
:103D3000FDF764FA314A324BFCF74EFD2A46334612
:103D4000FCF7B2FD0022284BFCF746FD07462A4649
:103D5000334600E064E0039110461946FCF7A4FDE9
:103D60003A46039BFCF7A0FD074603220991520740
:103D7000244B28463146FCF797FD07910C90224AC8
:103D8000204B38460999FCF78FFD074601911F4AE1
:103D90001F4B28463146FCF787FD3A46019BFCF74E
:103DA00010FD07460B460246099107990C98FCF74F
:103DB000FBFC00250E462846079B0C9AFCF701FDEC
:103DC0003A4627E0FFFF1F00FFFF0F000000F03F13
:103DD0000000E0FF0000F07F0000404301FCFFFF17
:103DE0000000F0BF421300000000E03F0000F0FFC1
:103DF0000000E0410000F043FFFFEF3F55555555EF
:103E00005555D53F4715F73FFE822B6544DF5DF8DA
:103E10000BAE543E099BFCF7DFFC02460B4652E119
:103E2000012500202D05A94207DA35223046394602
:103E3000FDF7E4F906463420C0430A151218FE487F
:103E4000101803900803FD49000B01430F46FC497D
:103E5000884201DC002003E0FA49884202DA0120AE
:103E6000119005E0002011900398401C7F1B0390E7
:103E700011980597C200F4480F927844801843685F
:103E80000268394630460D930292FCF79AFC07917E
:103E90000C9030460D9B029A0599FCF785FC024672
:103EA0000B460020E549FCF74FFF09910490079B62
:103EB0000C9AFCF7F9FC129000201090E3480D4694
:103EC000784400680E900121781049070843119941
:103ED0000D9B890440180121C90447183946029AEC
:103EE0000E98FCF76EFC3246059BFCF775FC02460B
:103EF0000B4629461098FCF7D7FC064602913B4634
:103F000029460E9A1098FCF7CFFC079B0C9AFCF7F9
:103F100063FC3246029BFCF754FC099B049AFCF7B5
:103F2000C3FC0591129A0A902B4610461946FCF7DD
:103F3000BBFC06460246C6480F460B46062178449F
:103F4000FFF7AEFA32463B46009104901046194600
:103F5000FCF7AAFC009B049AFCF7A6FC06460F4659
:103F60002B461946129A1098FCF71EFC059B0A9ADC
:103F7000FCF79AFC32463B46FCF716FC109A079178
:103F800004902B4610461946FCF78EFCB14E0022D9
:103F9000334609910290FCF707FC079B049AFCF753
:103FA00003FC00200746024633460091FCF709FC5B
:103FB000099B029AFCF705FC079B049AFCF70CFC92
:103FC00006460D913A462946009B1098FCF76CFC7A
:103FD00007910C902B463046129A0D99FCF764FC21
:103FE00005460E463A46009B05990A98FCF75CFC8C
:103FF00033462A46FCF7D8FB02460B460746099192
:1040000007990C98FCF7D0FB00250E462846079B25
:104010000C9AFCF7D6FB3A46099BFCF7DDFB0746FA
:104020000722099152078C4B31462846FCF73CFC8D
:1040300007910090894A884B38460999FCF734FC6F
:1040400007460191864A874B31462846FCF72CFCEF
:104050003A46019BFCF7A8FB834B7B440F9A9B18C5
:104060001A685B68FCF7A0FB029009910398FCF7C3
:1040700010FC05910490099B029A07990098FCF79F
:1040800093FB7A4B7B440F9A9B181A685B68174620
:104090000393FCF789FB059B049AFCF785FB0E460E
:1040A0002846059B049AFCF78CFB3A46039BFCF7D9
:1040B00088FB079B009AFCF784FB099B029AFCF79C
:1040C0008BFB02460B46199900200C900F4618985E
:1040D000FCF7EAFB029104903B460C9A1999189858
:1040E000FCF76FFB2A463346FCF7DEFB029B049A83
:1040F000FCF75AFB09910E902A46334639460C9834
:10410000FCF7D2FB06460F46099B0E9AFCF74CFBC8
:10411000574A0D46914220DB5242AA18024310D161
:1041200032463B46FCF74DFB04900391514A524BFB
:1041300009990E98FCF738FB039B049A00F068FA83
:104140001ED20220FCF7FAFDFFF71CFA49004908CD
:10415000E20FD20711431BB0F0BD6A00474B520873
:104160009A420DD3464AAA18024300D0CBE5324604
:104170003B46FCF726FB099B0E9A00F049FAF5D95D
:104180006800002340082C490393020D3D4B521850
:10419000984223DD01200005521CD04042195000F6
:1041A000400D401838497944096813468C46374910
:1041B000C1408B4312030121120B0905511814222F
:1041C000101AC1400391002D01DA48420390624663
:1041D00030463946FCF7F5FA06460F4632463B466E
:1041E00009990E98FCF7E0FA00252A46284B284644
:1041F0000591FCF759FB07910C90264A264B28465F
:104200000599FCF751FB0091029032463B46284647
:104210000599FCF7D6FA099B0E9AFCF7DDFA1F4ABE
:104220001F4BFCF741FB009B029AFCF7BDFA0746C7
:104230000B460246099135E001FCFFFF0000F03F0C
:104240008E9803007AB60B00D20E0000940F000087
:104250003E0E00000000084009C7EE3FFD033ADCB7
:10426000F5015B14E02F3EBE120D0000D80C0000DB
:1042700000009040FE822B654715973C00CC904093
:1042800000346F3F0000E03FAE0C0000FFFF0F0066
:10429000432EE63F396CA80C615C20BEEF39FAFE74
:1042A000422EE63F07990C98FCF77EFA05460E462B
:1042B000079B0C9AFCF785FA3A46099BFCF78CFAA7
:1042C00009912A4633460E9010461946FCF7ECFA3F
:1042D000074602462F480B46059105217844FFF713
:1042E000DFF83A46059BFCF7DFFA2A463346FCF72F
:1042F00073FA0746019128463146099B0E9AFCF74E
:10430000D3FA099B0E9AFCF74FFA012304910C9003
:1043100000229B0738460199FCF753FA05910E904D
:104320003A4628463146019BFCF7BEFA059B0E9A99
:10433000FCF70AFD049B0C9AFCF743FA2A46334625
:10434000FCF73FFA0022144BFCF746FA06460398A6
:104350000D46000541190915002912DC3046294691
:10436000039AFCF74BFFFFF763F8042801D1FFF72E
:1043700013F930462946039AFCF740FF064601E050
:1043800004E029180B46324621460898FCF78CFABF
:104390001BB0F0BDD00A00000000F03FF8B5554D4D
:1043A00000242046FCF77DFA0022534BFCF77CFAF0
:1043B00006460F466888FCF774FA32463B46FCF71F
:1043C000F3F9FCF721FA86B296213046FBF781FF1C
:1043D000084600913221FBF77CFF002804D0012819
:1043E00024D002284BD157E00098FCF79FFC434FA4
:1043F0003946FCF7A7FB7F21C90500F0DBF906462B
:104400000098FCF793FC3946FCF79CFB3C4900F014
:1044100079F9FCF747FCC7B23949304600F072F928
:10442000FCF740FCC1B200233A4625E00098323840
:10443000FCF774FC3149FCF785FB7F21C90500F0CE
:10444000B9F90746304696213238FBF74CFF08464B
:10445000FCF764FC2949FCF775FB294900F052F987
:10446000FCF720FCC6B22649384600F04BF9FCF7B1
:1044700019FCC2B2334600212046FEF73FFB641C04
:10448000A4B23C2C8DD3FEF791FC688896282DD3DE
:10449000002068800320F8BD009908466438FCF7C6
:1044A0003DFC1649FCF74EFB7F21C90500F082F95F
:1044B0000746304696216438FBF715FF0846FCF79F
:1044C0002DFC0E49FCF73EFB00900D49384600F0EC
:1044D00019F9FCF7E7FBC6B20949009800F012F998
:1044E000FCF7E0FBC1B233460022C5E7401C688000
:1044F0000120F8BD000000200000044000004842F8
:1045000000007F4310B50024002223B2114610465C
:10451000FFF7E6F9641C692CF6DBFEF747FC10BDDB
:10452000F8B515460E460746002423B22A46314602
:104530003846FFF7D5F9641C692CF6DBFEF736FC2C
:10454000F8BD70B51C4615460E4603B222462946F4
:104550003046FFF7C5F90A20FDF7FAF8FEF726FC0A
:1045600070BD0000F8B506460C46FCF7C3FE051EFC
:104570000F4600D00120014349000B484908411A69
:10458000C90F0DD0002E01D0012100E000210C4305
:1045900061004908401AC00F02D10120FCF7CEFB90
:1045A00028463946F8BD00000000F07F70B50125AF
:1045B0000C002D051C4310D4EC4206D4AC420AD4A6
:1045C000994200D070BD904270BDE94217D4EB42D1
:1045D00015D4994270BD894270BDEC4206D5AC42FB
:1045E000F9D58B4200D070BD824270BD6D004C0089
:1045F000EC4204D25C00EC4201D28B4270BD034C11
:1046000030B4FCF72FFE30BC70BD00BF190016049B
:1046100070B501251C002D050C4310D4EC4206D4C6
:10462000AC420AD48B4200D070BD824270BDEB42D6
:1046300017D4E94215D48B4270BD9B4270BDEC4249
:1046400006D5AC42F9D5994200D070BD904270BDFC
:104650006D005C00EC4204D24C00EC4201D2994265
:1046600070BD0FB4034C0CBC03BC30B4FCF7FAFDB6
:1046700030BC70BD1900160470B501250400ED07AB
:104680004C4020D4441A01D2001B0919C60D4B001E
:10469000F2B2FF2A29D01B0E2CD000020C02D31A32
:1046A0002C43DC402843051910D2280A02D3401CB1
:1046B0006D0611D0761EF6058019FF2A00DA70BD4E
:1046C000C00DC00570BD694000F086F801200543AB
:1046D000C541521C761CE8E764089C40C901614052
:1046E0008900E7D10124A043E4E71B0E440200D077
:1046F000034870BD002AFCD1C00FC00770BD00BFC9
:104700000000C07F70B5420064414B005C41120E56
:1047100039D01B0E38D0FF2A3CD0FF2B3AD04002B4
:104720004902400A490A060045184E43000A090A90
:10473000D2184843ED017F3A0104731A4019190C4D
:104740004318990F04D001215B0849075B1A521CDA
:10475000D80904D3401CF50301D19D0607D0FF2AD8
:1047600008D2D50506D0E4072043401970BD0125C5
:10477000A843F4E7002A01DCE00770BD2402FF2013
:104780002043C00570BD1B0EFF2A03D0FF2B01D0B4
:10479000E00770BDFF2645003606B54206D84D003D
:1047A000B54203D8D218FF2A00D0E7E7004870BD11
:1047B0000000C07F70B50125ED07684004004C4043
:1047C00002D5694000F008F8FFF75CFF70B50125DD
:1047D0000400ED074C4022D4441A02D26C40001B66
:1047E0000919C60D4B00F2B2FF2A4BD01B0E50D058
:1047F00000020C02D31A2C43DC40A843051B05D54C
:10480000AD0019D36D08761E521E37D0F605280A62
:1048100001D2801970BD70416D0603D070BD694032
:10482000FFF730FF9C4009026140490001D0401E63
:1048300070BD0124A04370BD6D081DD001202B0C5C
:1048400001D12D0410302B0E01D12D0208302B0F79
:1048500001D12D01001DAB0F01D1AD00801CEB0F6C
:1048600001D16D00401C6D00361A121A680AF50558
:104870004019012A02DB70BD002070BDC036300A2D
:10488000C00770BD1B0E440201D1FF2B00D10248AE
:1048900070BD002AF0D070BD0000C07F4444444485
:1048A000444444474444447444444477444447445F
:1048B0004444474744444774444447774444744419
:1048C000444474474444747444447477444477447F
:1048D0004444774744447774444477774447444496
:1048E0004447444744474474444744774447474413
:1048F00044474747444747744447477744477444CD
:104900004447744744477474444774774447774432
:10491000444777474447777444477777447444441F
:10492000447444474474447444744477447447441E
:1049300044744747447447744474477744747444D8
:10494000447474474474747444747477447477443E
:104950004474774744747774447477774477444455
:1049600044774447447744744477447744774744D2
:10497000447747474477477444774777447774448C
:1049800044777447447774744477747744777744F2
:10499000447777474477777444777777474444443C
:1049A0004744444747444474474444774744474452
:1049B000474447474744477447444777474474440C
:1049C0004744744747447474474474774744774472
:1049D0004744774747447774474477774747444489
:1049E0004747444747474474474744774747474406
:1049F00047474747474747744747477747477444C0
:104A00004747744747477474474774774747774425
:104A10004747774747477774474777774774444412
:104A20004774444747744474477444774774474411
:104A300047744747477447744774477747747444CB
:104A40004774744747747474477474774774774431
:104A50004774774747747774477477774777444448
:104A600047774447477744744777447747774744C5
:104A7000477747474777477447774777477774447F
:104A800047777447477774744777747747777744E5
:104A90004777774747777774477777777444444405
:104AA000744444477444447474444477744447449D
:104AB0007444474774444774744447777444744457
:104AC00074447447744474747444747774447744BD
:104AD00074447747744477747444777774474444D4
:104AE0007447444774474474744744777447474451
:104AF000744747477447477474474777744774440B
:104B00007447744774477474744774777447774470
:104B1000744777477447777474477777747444445D
:104B2000747444477474447474744477747447445C
:104B30007474474774744774747447777474744416
:104B4000747474477474747474747477747477447C
:104B50007474774774747774747477777477444493
:104B60007477444774774474747744777477474410
:104B700074774747747747747477477774777444CA
:104B80007477744774777474747774777477774430
:104B9000747777477477777474777777774444447A
:104BA0007744444777444474774444777744474490
:104BB000774447477744477477444777774474444A
:104BC00077447447774474747744747777447744B0
:104BD00077447747774477747744777777474444C7
:104BE0007747444777474474774744777747474444
:104BF00077474747774747747747477777477444FE
:104C00007747744777477474774774777747774463
:104C10007747774777477774774777777774444450
:104C2000777444477774447477744477777447444F
:104C30007774474777744774777447777774744409
:104C4000777474477774747477747477777477446F
:104C50007774774777747774777477777777444486
:104C60007777444777774474777744777777474403
:104C700077774747777747747777477777777444BD
:104C80007777744777777474777774777777774423
:104C900077777747777777747777777700000000B3
:104CA00000000000010203040607080900000000DC
:104CB000010203048182838485868788898B8C8D99
:104CC0008E8F919293959697999A9C9D9FA0A2A35F
:104CD000A5A7A8AAACAEB0B2B3B5B7B9BCBEC0C2A6
:104CE000C5C7C9CCCED1D4D7D9DCDFE2E6E9ECF038
:104CF000F3F7FAFE00000000000000000000E03FB3
:104D0000000000000000E0BF0000E0FE422EE63F91
:104D10000000E0FE422EE6BF763C7935EF39EA3DF1
:104D2000763C7935EF39EABD3E5555555555C53F69
:104D300093BDBE166CC166BF2CDE25AF6A56113F0F
:104D4000F16BD2C541BDBBBED0A4BE726937663E11
:104D5000000000000000F03F000000000000F83FED
:104D600000000000000000000000004003B8E23F27
:104D7000000000000000000006D0CF43EBFD4C3ED9
:104D8000033333333333E33FFFAB6FDBB66DDB3FCE
:104D90004D268F515555D53F01411DA96074D13F16
:104DA00065DBC9934A86CD3FEF4E454A287ECA3F10
:104DB0003E5555555555C53F93BDBE166CC166BF92
:104DC0002CDE25AF6A56113FF16BD2C541BDBBBE8B
:104DD000D0A4BE726937663E80807F7E7D7C7B7A00
:104DE0007978777676757473727171706F6E6E6D97
:104DF0006C6C6B6A6A69686867666665646463633D
:104E000062616160605F5F5E5E5D5D5C5C5B5B5AC2
:104E10005A5959585857575656555555545453532F
:104E200052525251515050504F4F4F4E4E4D4D4D8A
:104E30004C4C4C4B4B4B4A4A4A49494948484847D5
:104E40004747474646464545454444444443434313
:104E50004342424242414141000000000000000044
:104E6000804E0008000000202C000000F800000820
:104E7000AC4E00082C000020BC0C000014010008FF
:104E80000000000000000000000000000000000022
:104E9000295C0F3E0000003F000000000100000000
:0C4EA000040000000000000000127A0076
:04000005080000B53A
:00000001FF
